{
    "_format": "hh-sol-artifact-1",
    "contractName": "TokenizedBallot",
    "sourceName": "contracts/TokenizedBallot.sol",
    "abi": [
        {
            "inputs": [
                {
                    "internalType": "bytes32[]",
                    "name": "proposalNames",
                    "type": "bytes32[]"
                },
                {
                    "internalType": "address",
                    "name": "_tokenContract",
                    "type": "address"
                },
                {
                    "internalType": "uint256",
                    "name": "_referenceBlock",
                    "type": "uint256"
                }
            ],
            "stateMutability": "nonpayable",
            "type": "constructor"
        },
        {
            "anonymous": false,
            "inputs": [
                {
                    "indexed": true,
                    "internalType": "address",
                    "name": "previousOwner",
                    "type": "address"
                },
                {
                    "indexed": true,
                    "internalType": "address",
                    "name": "newOwner",
                    "type": "address"
                }
            ],
            "name": "OwnershipTransferred",
            "type": "event"
        },
        {
            "inputs": [],
            "name": "owner",
            "outputs": [
                {
                    "internalType": "address",
                    "name": "",
                    "type": "address"
                }
            ],
            "stateMutability": "view",
            "type": "function"
        },
        {
            "inputs": [
                {
                    "internalType": "uint256",
                    "name": "",
                    "type": "uint256"
                }
            ],
            "name": "proposals",
            "outputs": [
                {
                    "internalType": "bytes32",
                    "name": "name",
                    "type": "bytes32"
                },
                {
                    "internalType": "uint256",
                    "name": "voteCount",
                    "type": "uint256"
                }
            ],
            "stateMutability": "view",
            "type": "function"
        },
        {
            "inputs": [],
            "name": "referenceBlock",
            "outputs": [
                {
                    "internalType": "uint256",
                    "name": "",
                    "type": "uint256"
                }
            ],
            "stateMutability": "view",
            "type": "function"
        },
        {
            "inputs": [],
            "name": "renounceOwnership",
            "outputs": [],
            "stateMutability": "nonpayable",
            "type": "function"
        },
        {
            "inputs": [],
            "name": "tokenContract",
            "outputs": [
                {
                    "internalType": "contract IERC20Votes",
                    "name": "",
                    "type": "address"
                }
            ],
            "stateMutability": "view",
            "type": "function"
        },
        {
            "inputs": [
                {
                    "internalType": "address",
                    "name": "newOwner",
                    "type": "address"
                }
            ],
            "name": "transferOwnership",
            "outputs": [],
            "stateMutability": "nonpayable",
            "type": "function"
        },
        {
            "inputs": [
                {
                    "internalType": "uint256",
                    "name": "proposal",
                    "type": "uint256"
                },
                {
                    "internalType": "uint256",
                    "name": "amount",
                    "type": "uint256"
                }
            ],
            "name": "vote",
            "outputs": [],
            "stateMutability": "nonpayable",
            "type": "function"
        },
        {
            "inputs": [
                {
                    "internalType": "address",
                    "name": "account",
                    "type": "address"
                }
            ],
            "name": "votingPower",
            "outputs": [
                {
                    "internalType": "uint256",
                    "name": "votingPower_",
                    "type": "uint256"
                }
            ],
            "stateMutability": "view",
            "type": "function"
        },
        {
            "inputs": [
                {
                    "internalType": "address",
                    "name": "",
                    "type": "address"
                }
            ],
            "name": "votingPowerSpent",
            "outputs": [
                {
                    "internalType": "uint256",
                    "name": "",
                    "type": "uint256"
                }
            ],
            "stateMutability": "view",
            "type": "function"
        },
        {
            "inputs": [],
            "name": "winnerName",
            "outputs": [
                {
                    "internalType": "bytes32",
                    "name": "winnerName_",
                    "type": "bytes32"
                }
            ],
            "stateMutability": "view",
            "type": "function"
        },
        {
            "inputs": [],
            "name": "winningProposal",
            "outputs": [
                {
                    "internalType": "uint256",
                    "name": "winningProposal_",
                    "type": "uint256"
                }
            ],
            "stateMutability": "view",
            "type": "function"
        }
    ],
    "bytecode": "0x60806040523480156200001157600080fd5b506040516200128338038062001283833981810160405281019062000037919062000470565b620000576200004b6200014060201b60201c565b6200014860201b60201c565b60005b8351811015620000ee5760036040518060400160405280868481518110620000875762000086620004eb565b5b6020026020010151815260200160008152509080600181540180825580915050600190039060005260206000209060020201600090919091909150600082015181600001556020820151816001015550508080620000e59062000549565b9150506200005a565b5081600260006101000a81548173ffffffffffffffffffffffffffffffffffffffff021916908373ffffffffffffffffffffffffffffffffffffffff1602179055508060018190555050505062000596565b600033905090565b60008060009054906101000a900473ffffffffffffffffffffffffffffffffffffffff169050816000806101000a81548173ffffffffffffffffffffffffffffffffffffffff021916908373ffffffffffffffffffffffffffffffffffffffff1602179055508173ffffffffffffffffffffffffffffffffffffffff168173ffffffffffffffffffffffffffffffffffffffff167f8be0079c531659141344cd1fd0a4f28419497f9722a3daafe3b4186f6b6457e060405160405180910390a35050565b6000604051905090565b600080fd5b600080fd5b600080fd5b6000601f19601f8301169050919050565b7f4e487b7100000000000000000000000000000000000000000000000000000000600052604160045260246000fd5b620002708262000225565b810181811067ffffffffffffffff8211171562000292576200029162000236565b5b80604052505050565b6000620002a76200020c565b9050620002b5828262000265565b919050565b600067ffffffffffffffff821115620002d857620002d762000236565b5b602082029050602081019050919050565b600080fd5b6000819050919050565b6200030381620002ee565b81146200030f57600080fd5b50565b6000815190506200032381620002f8565b92915050565b6000620003406200033a84620002ba565b6200029b565b90508083825260208201905060208402830185811115620003665762000365620002e9565b5b835b818110156200039357806200037e888262000312565b84526020840193505060208101905062000368565b5050509392505050565b600082601f830112620003b557620003b462000220565b5b8151620003c784826020860162000329565b91505092915050565b600073ffffffffffffffffffffffffffffffffffffffff82169050919050565b6000620003fd82620003d0565b9050919050565b6200040f81620003f0565b81146200041b57600080fd5b50565b6000815190506200042f8162000404565b92915050565b6000819050919050565b6200044a8162000435565b81146200045657600080fd5b50565b6000815190506200046a816200043f565b92915050565b6000806000606084860312156200048c576200048b62000216565b5b600084015167ffffffffffffffff811115620004ad57620004ac6200021b565b5b620004bb868287016200039d565b9350506020620004ce868287016200041e565b9250506040620004e18682870162000459565b9150509250925092565b7f4e487b7100000000000000000000000000000000000000000000000000000000600052603260045260246000fd5b7f4e487b7100000000000000000000000000000000000000000000000000000000600052601160045260246000fd5b6000620005568262000435565b91507fffffffffffffffffffffffffffffffffffffffffffffffffffffffffffffffff82036200058b576200058a6200051a565b5b600182019050919050565b610cdd80620005a66000396000f3fe608060405234801561001057600080fd5b50600436106100a95760003560e01c8063a720035111610071578063a720035114610143578063b384abef14610173578063c07473f61461018f578063d94c8caa146101bf578063e2ba53f0146101dd578063f2fde38b146101fb576100a9565b8063013cf08b146100ae57806355a373d6146100df578063609ff1bd146100fd578063715018a61461011b5780638da5cb5b14610125575b600080fd5b6100c860048036038101906100c3919061076a565b610217565b6040516100d69291906107bf565b60405180910390f35b6100e761024b565b6040516100f49190610867565b60405180910390f35b610105610271565b6040516101129190610882565b60405180910390f35b6101236102f9565b005b61012d61030d565b60405161013a91906108be565b60405180910390f35b61015d60048036038101906101589190610905565b610336565b60405161016a9190610882565b60405180910390f35b61018d60048036038101906101889190610932565b61034e565b005b6101a960048036038101906101a49190610905565b610435565b6040516101b69190610882565b60405180910390f35b6101c7610528565b6040516101d49190610882565b60405180910390f35b6101e561052e565b6040516101f29190610972565b60405180910390f35b61021560048036038101906102109190610905565b610562565b005b6003818154811061022757600080fd5b90600052602060002090600202016000915090508060000154908060010154905082565b600260009054906101000a900473ffffffffffffffffffffffffffffffffffffffff1681565b6000806000905060005b6003805490508110156102f457816003828154811061029d5761029c61098d565b5b90600052602060002090600202016001015411156102e157600381815481106102c9576102c861098d565b5b90600052602060002090600202016001015491508092505b80806102ec906109eb565b91505061027b565b505090565b6103016105e5565b61030b6000610663565b565b60008060009054906101000a900473ffffffffffffffffffffffffffffffffffffffff16905090565b60046020528060005260406000206000915090505481565b600061035933610435565b90508181101561039e576040517f08c379a000000000000000000000000000000000000000000000000000000000815260040161039590610ab6565b60405180910390fd5b81600460003373ffffffffffffffffffffffffffffffffffffffff1673ffffffffffffffffffffffffffffffffffffffff16815260200190815260200160002060008282546103ed9190610ad6565b9250508190555081600384815481106104095761040861098d565b5b906000526020600020906002020160010160008282546104299190610ad6565b92505081905550505050565b6000600460003373ffffffffffffffffffffffffffffffffffffffff1673ffffffffffffffffffffffffffffffffffffffff16815260200190815260200160002054600260009054906101000a900473ffffffffffffffffffffffffffffffffffffffff1673ffffffffffffffffffffffffffffffffffffffff16633a46b1a8846001546040518363ffffffff1660e01b81526004016104d6929190610b0a565b602060405180830381865afa1580156104f3573d6000803e3d6000fd5b505050506040513d601f19601f820116820180604052508101906105179190610b48565b6105219190610b75565b9050919050565b60015481565b6000600361053a610271565b8154811061054b5761054a61098d565b5b906000526020600020906002020160000154905090565b61056a6105e5565b600073ffffffffffffffffffffffffffffffffffffffff168173ffffffffffffffffffffffffffffffffffffffff16036105d9576040517f08c379a00000000000000000000000000000000000000000000000000000000081526004016105d090610c1b565b60405180910390fd5b6105e281610663565b50565b6105ed610727565b73ffffffffffffffffffffffffffffffffffffffff1661060b61030d565b73ffffffffffffffffffffffffffffffffffffffff1614610661576040517f08c379a000000000000000000000000000000000000000000000000000000000815260040161065890610c87565b60405180910390fd5b565b60008060009054906101000a900473ffffffffffffffffffffffffffffffffffffffff169050816000806101000a81548173ffffffffffffffffffffffffffffffffffffffff021916908373ffffffffffffffffffffffffffffffffffffffff1602179055508173ffffffffffffffffffffffffffffffffffffffff168173ffffffffffffffffffffffffffffffffffffffff167f8be0079c531659141344cd1fd0a4f28419497f9722a3daafe3b4186f6b6457e060405160405180910390a35050565b600033905090565b600080fd5b6000819050919050565b61074781610734565b811461075257600080fd5b50565b6000813590506107648161073e565b92915050565b6000602082840312156107805761077f61072f565b5b600061078e84828501610755565b91505092915050565b6000819050919050565b6107aa81610797565b82525050565b6107b981610734565b82525050565b60006040820190506107d460008301856107a1565b6107e160208301846107b0565b9392505050565b600073ffffffffffffffffffffffffffffffffffffffff82169050919050565b6000819050919050565b600061082d610828610823846107e8565b610808565b6107e8565b9050919050565b600061083f82610812565b9050919050565b600061085182610834565b9050919050565b61086181610846565b82525050565b600060208201905061087c6000830184610858565b92915050565b600060208201905061089760008301846107b0565b92915050565b60006108a8826107e8565b9050919050565b6108b88161089d565b82525050565b60006020820190506108d360008301846108af565b92915050565b6108e28161089d565b81146108ed57600080fd5b50565b6000813590506108ff816108d9565b92915050565b60006020828403121561091b5761091a61072f565b5b6000610929848285016108f0565b91505092915050565b600080604083850312156109495761094861072f565b5b600061095785828601610755565b925050602061096885828601610755565b9150509250929050565b600060208201905061098760008301846107a1565b92915050565b7f4e487b7100000000000000000000000000000000000000000000000000000000600052603260045260246000fd5b7f4e487b7100000000000000000000000000000000000000000000000000000000600052601160045260246000fd5b60006109f682610734565b91507fffffffffffffffffffffffffffffffffffffffffffffffffffffffffffffffff8203610a2857610a276109bc565b5b600182019050919050565b600082825260208201905092915050565b7f546f6b656e697a656442616c6c6f743a20747279696e6720746f20766f74652060008201527f6d6f7265207468616e20766f74696e67506f77657220617661696c61626c6500602082015250565b6000610aa0603f83610a33565b9150610aab82610a44565b604082019050919050565b60006020820190508181036000830152610acf81610a93565b9050919050565b6000610ae182610734565b9150610aec83610734565b9250828201905080821115610b0457610b036109bc565b5b92915050565b6000604082019050610b1f60008301856108af565b610b2c60208301846107b0565b9392505050565b600081519050610b428161073e565b92915050565b600060208284031215610b5e57610b5d61072f565b5b6000610b6c84828501610b33565b91505092915050565b6000610b8082610734565b9150610b8b83610734565b9250828203905081811115610ba357610ba26109bc565b5b92915050565b7f4f776e61626c653a206e6577206f776e657220697320746865207a65726f206160008201527f6464726573730000000000000000000000000000000000000000000000000000602082015250565b6000610c05602683610a33565b9150610c1082610ba9565b604082019050919050565b60006020820190508181036000830152610c3481610bf8565b9050919050565b7f4f776e61626c653a2063616c6c6572206973206e6f7420746865206f776e6572600082015250565b6000610c71602083610a33565b9150610c7c82610c3b565b602082019050919050565b60006020820190508181036000830152610ca081610c64565b905091905056fea2646970667358221220fd13123d3202a36ecd56ff00b478154a485d630d26f199300d6192719172619064736f6c63430008110033",
    "linkReferences": {},
    "deployedLinkReferences": {}
}